{
  "abi": [
    {
      "anonymous": false,
      "inputs": [
        {
          "indexed": false,
          "internalType": "address",
          "name": "_newOwner",
          "type": "address"
        }
      ],
      "name": "ContractOwnerChanged",
      "type": "event"
    },
    {
      "anonymous": false,
      "inputs": [
        {
          "indexed": true,
          "internalType": "address",
          "name": "_from",
          "type": "address"
        },
        {
          "indexed": true,
          "internalType": "address",
          "name": "_to",
          "type": "address"
        },
        {
          "indexed": true,
          "internalType": "uint256",
          "name": "_tokenId",
          "type": "uint256"
        }
      ],
      "name": "Transfer",
      "type": "event"
    },
    {
      "anonymous": false,
      "inputs": [
        {
          "indexed": false,
          "internalType": "address",
          "name": "_newValidator",
          "type": "address"
        }
      ],
      "name": "ValidatorChanged",
      "type": "event"
    },
    {
      "inputs": [],
      "name": "getValidator",
      "outputs": [
        {
          "internalType": "address",
          "name": "",
          "type": "address"
        }
      ],
      "stateMutability": "view",
      "type": "function"
    },
    {
      "inputs": [
        {
          "internalType": "address",
          "name": "_address",
          "type": "address"
        },
        {
          "internalType": "uint256",
          "name": "_tokenId",
          "type": "uint256"
        },
        {
          "internalType": "uint256",
          "name": "_salt",
          "type": "uint256"
        },
        {
          "internalType": "bytes",
          "name": "_signature",
          "type": "bytes"
        }
      ],
      "name": "mint",
      "outputs": [],
      "stateMutability": "nonpayable",
      "type": "function"
    },
    {
      "inputs": [
        {
          "internalType": "address",
          "name": "_newContactOwner",
          "type": "address"
        }
      ],
      "name": "setContractOwner",
      "outputs": [],
      "stateMutability": "nonpayable",
      "type": "function"
    },
    {
      "inputs": [
        {
          "internalType": "address",
          "name": "_newValidator",
          "type": "address"
        }
      ],
      "name": "setValidator",
      "outputs": [],
      "stateMutability": "nonpayable",
      "type": "function"
    },
    {
      "inputs": [
        {
          "internalType": "bytes32",
          "name": "_hash",
          "type": "bytes32"
        },
        {
          "internalType": "bytes",
          "name": "_signature",
          "type": "bytes"
        }
      ],
      "name": "verify",
      "outputs": [
        {
          "internalType": "bool",
          "name": "",
          "type": "bool"
        }
      ],
      "stateMutability": "view",
      "type": "function"
    }
  ],
  "bytecode": {
    "object": "0x608060405234801561001057600080fd5b506106c4806100206000396000f3fe608060405234801561001057600080fd5b50600436106100575760003560e01c80631195e07e1461005c5780631327d3d81461009b578063258ae582146100b0578063731133e9146100d3578063a34d42b8146100e6575b600080fd5b7fa9767923fa81a63f5e22f0506ca531e5dc7649b02f99a75e3d53d88d5dba2833546040516001600160a01b0390911681526020015b60405180910390f35b6100ae6100a93660046104e7565b6100f9565b005b6100c36100be36600461051f565b6101ab565b6040519015158152602001610092565b6100ae6100e13660046105da565b6102af565b6100ae6100f43660046104e7565b61042b565b60008051602061066f83398151915280546001600160a01b031633146101535760405162461bcd60e51b815260206004820152600a6024820152694f574e4552204f4e4c5960b01b60448201526064015b60405180910390fd5b6004810180546001600160a01b0319166001600160a01b0384169081179091556040519081527f0d3a3dda2c3164bbc4898485ffa0b984c414d664538d3b99df23202077f72c9b906020015b60405180910390a15050565b600081516041146101e85760405162461bcd60e51b81526020600482015260076024820152661253959053125160ca1b604482015260640161014a565b6020828101516040808501516060808701517fa9767923fa81a63f5e22f0506ca531e5dc7649b02f99a75e3d53d88d5dba283354845160008082528189018088528c90529290921a82860181905292820186905260808201849052935160008051602061066f83398151915296939492936001600160a01b039093169260019260a080820193601f1981019281900390910190855afa15801561028f573d6000803e3d6000fd5b505050602060405103516001600160a01b03161494505050505092915050565b604080513360208201526001600160a01b03871691810191909152606081018590526080810184905260009060a0016040516020818303038152906040528051906020012090506103368184848080601f0160208091040260200160405190810160405280939291908181526020018383808284376000920191909152506101ab92505050565b61036c5760405162461bcd60e51b81526020600482015260076024820152661253959053125160ca1b604482015260640161014a565b60008581527fa9767923fa81a63f5e22f0506ca531e5dc7649b02f99a75e3d53d88d5dba28366020908152604080832080546001600160a01b0319166001600160a01b038b169081179091558084527fa9767923fa81a63f5e22f0506ca531e5dc7649b02f99a75e3d53d88d5dba2835909252808320805460010190555160008051602061066f833981519152928892917fddf252ad1be2c89b69c2b068fc378daa952ba7f163c4a11628f55a4df523b3ef908290a450505050505050565b60008051602061066f83398151915280546001600160a01b031633146104805760405162461bcd60e51b815260206004820152600a6024820152694f574e4552204f4e4c5960b01b604482015260640161014a565b80546001600160a01b0319166001600160a01b03831690811782556040519081527f1dad5e80e958c984a8452d7badfbfcb5bb26300e5599542c55c07b97d053cee69060200161019f565b80356001600160a01b03811681146104e257600080fd5b919050565b6000602082840312156104f957600080fd5b610502826104cb565b9392505050565b634e487b7160e01b600052604160045260246000fd5b6000806040838503121561053257600080fd5b82359150602083013567ffffffffffffffff8082111561055157600080fd5b818501915085601f83011261056557600080fd5b81358181111561057757610577610509565b604051601f8201601f19908116603f0116810190838211818310171561059f5761059f610509565b816040528281528860208487010111156105b857600080fd5b8260208601602083013760006020848301015280955050505050509250929050565b6000806000806000608086880312156105f257600080fd5b6105fb866104cb565b94506020860135935060408601359250606086013567ffffffffffffffff8082111561062657600080fd5b818801915088601f83011261063a57600080fd5b81358181111561064957600080fd5b89602082850101111561065b57600080fd5b969995985093965060200194939250505056fea9767923fa81a63f5e22f0506ca531e5dc7649b02f99a75e3d53d88d5dba282fa2646970667358221220365a483eea972854dbee7b2dccf517d6dfb6e134a099ddfff06742d9ad57e93664736f6c63430008100033",
    "linkReferences": {}
  },
  "methodIdentifiers": {
    "getValidator()": "1195e07e",
    "mint(address,uint256,uint256,bytes)": "731133e9",
    "setContractOwner(address)": "a34d42b8",
    "setValidator(address)": "1327d3d8",
    "verify(bytes32,bytes)": "258ae582"
  },
  "id": 1
}