{
  "abi": [
    {
      "anonymous": false,
      "inputs": [
        {
          "indexed": false,
          "internalType": "address",
          "name": "_newOwner",
          "type": "address"
        }
      ],
      "name": "ContractOwnerChanged",
      "type": "event"
    },
    {
      "anonymous": false,
      "inputs": [
        {
          "indexed": true,
          "internalType": "address",
          "name": "_from",
          "type": "address"
        },
        {
          "indexed": true,
          "internalType": "address",
          "name": "_to",
          "type": "address"
        },
        {
          "indexed": true,
          "internalType": "uint256",
          "name": "_tokenId",
          "type": "uint256"
        }
      ],
      "name": "Transfer",
      "type": "event"
    },
    {
      "anonymous": false,
      "inputs": [
        {
          "indexed": false,
          "internalType": "address",
          "name": "_newValidator",
          "type": "address"
        }
      ],
      "name": "ValidatorChanged",
      "type": "event"
    },
    {
      "inputs": [],
      "name": "getValidator",
      "outputs": [
        {
          "internalType": "address",
          "name": "",
          "type": "address"
        }
      ],
      "stateMutability": "view",
      "type": "function"
    },
    {
      "inputs": [
        {
          "internalType": "address",
          "name": "_address",
          "type": "address"
        },
        {
          "internalType": "uint256",
          "name": "_tokenId",
          "type": "uint256"
        },
        {
          "internalType": "uint256",
          "name": "_salt",
          "type": "uint256"
        },
        {
          "internalType": "bytes",
          "name": "_signature",
          "type": "bytes"
        }
      ],
      "name": "mint",
      "outputs": [],
      "stateMutability": "nonpayable",
      "type": "function"
    },
    {
      "inputs": [
        {
          "internalType": "address",
          "name": "_newContactOwner",
          "type": "address"
        },
        {
          "internalType": "uint256",
          "name": "_salt",
          "type": "uint256"
        },
        {
          "internalType": "bytes",
          "name": "_signature",
          "type": "bytes"
        }
      ],
      "name": "setContractOwner",
      "outputs": [],
      "stateMutability": "nonpayable",
      "type": "function"
    },
    {
      "inputs": [
        {
          "internalType": "address",
          "name": "_newValidator",
          "type": "address"
        }
      ],
      "name": "setValidator",
      "outputs": [],
      "stateMutability": "nonpayable",
      "type": "function"
    },
    {
      "inputs": [
        {
          "internalType": "bytes32",
          "name": "_hash",
          "type": "bytes32"
        },
        {
          "internalType": "bytes",
          "name": "_signature",
          "type": "bytes"
        }
      ],
      "name": "verify",
      "outputs": [
        {
          "internalType": "bool",
          "name": "",
          "type": "bool"
        }
      ],
      "stateMutability": "view",
      "type": "function"
    }
  ],
  "bytecode": {
    "object": "0x608060405234801561001057600080fd5b506107fb806100206000396000f3fe608060405234801561001057600080fd5b50600436106100575760003560e01c80631195e07e1461005c5780631327d3d81461009b578063258ae582146100b0578063731133e9146100d3578063c7be22f6146100e6575b600080fd5b7fa9767923fa81a63f5e22f0506ca531e5dc7649b02f99a75e3d53d88d5dba2833546040516001600160a01b0390911681526020015b60405180910390f35b6100ae6100a936600461058d565b6100f9565b005b6100c36100be366004610652565b6101aa565b6040519015158152602001610092565b6100ae6100e1366004610699565b6102d9565b6100ae6100f436600461072d565b61043b565b6000805160206107a683398151915280546001600160a01b031633146101535760405162461bcd60e51b815260206004820152600a6024820152694f574e4552204f4e4c5960b01b60448201526064015b60405180910390fd5b6004810180546001600160a01b0319166001600160a01b0384169081179091556040519081527f0d3a3dda2c3164bbc4898485ffa0b984c414d664538d3b99df23202077f72c9b9060200160405180910390a15050565b600081516041146101cd5760405162461bcd60e51b815260040161014a90610784565b60006000805160206107a6833981519152602084810151604080870151606080890151835160008082529681018086528c9052951a9285018390528401839052608084018190529394509092916102559060019060a0016020604051602081039080840390855afa158015610246573d6000803e3d6000fd5b50505060206040510351610505565b60048401546040805160008152602081018083528a905260ff84169181019190915260608101859052608081018490526001600160a01b039091169060019060a0016020604051602081039080840390855afa1580156102b9573d6000803e3d6000fd5b505050602060405103516001600160a01b03161494505050505092915050565b604080513360208201526001600160a01b03871691810191909152606081018590526080810184905260009060a0016040516020818303038152906040528051906020012090506103608184848080601f0160208091040260200160405190810160405280939291908181526020018383808284376000920191909152506101aa92505050565b61037c5760405162461bcd60e51b815260040161014a90610784565b60008581527fa9767923fa81a63f5e22f0506ca531e5dc7649b02f99a75e3d53d88d5dba28366020908152604080832080546001600160a01b0319166001600160a01b038b169081179091558084527fa9767923fa81a63f5e22f0506ca531e5dc7649b02f99a75e3d53d88d5dba283590925280832080546001019055516000805160206107a6833981519152928892917fddf252ad1be2c89b69c2b068fc378daa952ba7f163c4a11628f55a4df523b3ef908290a450505050505050565b604080513360208201526001600160a01b038516918101919091526060810183905260009060800160405160208183030381529060405280519060200120905061048581836101aa565b6104a15760405162461bcd60e51b815260040161014a90610784565b6000805160206107a683398151915280546001600160a01b0386166001600160a01b03199091168117825560408051918252517f1dad5e80e958c984a8452d7badfbfcb5bb26300e5599542c55c07b97d053cee69181900360200190a15050505050565b6040516001600160a01b038216602482015261054d9060440160408051601f198184030181529190526020810180516001600160e01b031663161765e160e11b179052610550565b50565b80516a636f6e736f6c652e6c6f67602083016000808483855afa5050505050565b80356001600160a01b038116811461058857600080fd5b919050565b60006020828403121561059f57600080fd5b6105a882610571565b9392505050565b634e487b7160e01b600052604160045260246000fd5b600082601f8301126105d657600080fd5b813567ffffffffffffffff808211156105f1576105f16105af565b604051601f8301601f19908116603f01168101908282118183101715610619576106196105af565b8160405283815286602085880101111561063257600080fd5b836020870160208301376000602085830101528094505050505092915050565b6000806040838503121561066557600080fd5b82359150602083013567ffffffffffffffff81111561068357600080fd5b61068f858286016105c5565b9150509250929050565b6000806000806000608086880312156106b157600080fd5b6106ba86610571565b94506020860135935060408601359250606086013567ffffffffffffffff808211156106e557600080fd5b818801915088601f8301126106f957600080fd5b81358181111561070857600080fd5b89602082850101111561071a57600080fd5b9699959850939650602001949392505050565b60008060006060848603121561074257600080fd5b61074b84610571565b925060208401359150604084013567ffffffffffffffff81111561076e57600080fd5b61077a868287016105c5565b9150509250925092565b6020808252600790820152661253959053125160ca1b60408201526060019056fea9767923fa81a63f5e22f0506ca531e5dc7649b02f99a75e3d53d88d5dba282fa264697066735822122011e61d30d826ab5e93c70d4b4d4d19f029a97740a25fb088fd331267888c7a2764736f6c63430008100033",
    "linkReferences": {}
  },
  "methodIdentifiers": {
    "getValidator()": "1195e07e",
    "mint(address,uint256,uint256,bytes)": "731133e9",
    "setContractOwner(address,uint256,bytes)": "c7be22f6",
    "setValidator(address)": "1327d3d8",
    "verify(bytes32,bytes)": "258ae582"
  },
  "id": 1
}