{
  "abi": [
    {
      "stateMutability": "payable",
      "type": "fallback"
    },
    {
      "inputs": [
        {
          "internalType": "address",
          "name": "_owner",
          "type": "address"
        }
      ],
      "name": "balanceOf",
      "outputs": [
        {
          "internalType": "uint256",
          "name": "",
          "type": "uint256"
        }
      ],
      "stateMutability": "view",
      "type": "function"
    },
    {
      "inputs": [],
      "name": "contractOwner",
      "outputs": [
        {
          "internalType": "address",
          "name": "",
          "type": "address"
        }
      ],
      "stateMutability": "view",
      "type": "function"
    },
    {
      "inputs": [
        {
          "internalType": "bytes4",
          "name": "",
          "type": "bytes4"
        }
      ],
      "name": "implementations",
      "outputs": [
        {
          "internalType": "address",
          "name": "",
          "type": "address"
        }
      ],
      "stateMutability": "view",
      "type": "function"
    },
    {
      "inputs": [
        {
          "internalType": "address",
          "name": "_contractOwner",
          "type": "address"
        },
        {
          "internalType": "string",
          "name": "_name",
          "type": "string"
        },
        {
          "internalType": "string",
          "name": "_symbol",
          "type": "string"
        },
        {
          "internalType": "string",
          "name": "_baseURI",
          "type": "string"
        },
        {
          "internalType": "address",
          "name": "_validator",
          "type": "address"
        }
      ],
      "name": "init",
      "outputs": [],
      "stateMutability": "nonpayable",
      "type": "function"
    },
    {
      "inputs": [],
      "name": "name",
      "outputs": [
        {
          "internalType": "string",
          "name": "",
          "type": "string"
        }
      ],
      "stateMutability": "view",
      "type": "function"
    },
    {
      "inputs": [
        {
          "internalType": "uint256",
          "name": "_tokenId",
          "type": "uint256"
        }
      ],
      "name": "ownerOf",
      "outputs": [
        {
          "internalType": "address",
          "name": "",
          "type": "address"
        }
      ],
      "stateMutability": "view",
      "type": "function"
    },
    {
      "inputs": [
        {
          "internalType": "bytes4[]",
          "name": "_sigs",
          "type": "bytes4[]"
        },
        {
          "internalType": "address[]",
          "name": "_impAddress",
          "type": "address[]"
        }
      ],
      "name": "setImplementation",
      "outputs": [],
      "stateMutability": "nonpayable",
      "type": "function"
    },
    {
      "inputs": [
        {
          "internalType": "bytes4",
          "name": "_interfaceID",
          "type": "bytes4"
        }
      ],
      "name": "supportsInterface",
      "outputs": [
        {
          "internalType": "bool",
          "name": "",
          "type": "bool"
        }
      ],
      "stateMutability": "view",
      "type": "function"
    },
    {
      "inputs": [],
      "name": "symbol",
      "outputs": [
        {
          "internalType": "string",
          "name": "",
          "type": "string"
        }
      ],
      "stateMutability": "view",
      "type": "function"
    },
    {
      "inputs": [
        {
          "internalType": "uint256",
          "name": "_tokenId",
          "type": "uint256"
        }
      ],
      "name": "tokenURI",
      "outputs": [
        {
          "internalType": "string",
          "name": "",
          "type": "string"
        }
      ],
      "stateMutability": "view",
      "type": "function"
    },
    {
      "stateMutability": "payable",
      "type": "receive"
    }
  ],
  "bytecode": {
    "object": "0x608060405234801561001057600080fd5b50610d15806100206000396000f3fe6080604052600436106100955760003560e01c80637a049541116100595780637a049541146102b757806395d89b41146102d7578063c87b56dd146102ec578063ce606ee01461030c578063e91db8e5146103375761009c565b806301ffc9a71461013757806306fdde03146101a557806316e4499f146101c75780636352211e146101e757806370a08231146102545761009c565b3661009c57005b600080356001600160e01b0319168152602081905260409020546001600160a01b0316806101115760405162461bcd60e51b815260206004820152601760248201527f46756e6374696f6e20646f6573206e6f7420657869737400000000000000000060448201526064015b60405180910390fd5b3660008037600080366000845af43d6000803e808015610130573d6000f35b3d6000fd5b005b34801561014357600080fd5b50610190610152366004610802565b6001600160e01b03191660009081527fa9767923fa81a63f5e22f0506ca531e5dc7649b02f99a75e3d53d88d5dba2834602052604090205460ff1690565b60405190151581526020015b60405180910390f35b3480156101b157600080fd5b506101ba61036d565b60405161019c9190610857565b3480156101d357600080fd5b506101356101e23660046108d6565b610430565b3480156101f357600080fd5b5061023c610202366004610942565b60009081527fa9767923fa81a63f5e22f0506ca531e5dc7649b02f99a75e3d53d88d5dba283660205260409020546001600160a01b031690565b6040516001600160a01b03909116815260200161019c565b34801561026057600080fd5b506102a961026f366004610977565b6001600160a01b031660009081527fa9767923fa81a63f5e22f0506ca531e5dc7649b02f99a75e3d53d88d5dba2835602052604090205490565b60405190815260200161019c565b3480156102c357600080fd5b506101356102d23660046109d4565b610573565b3480156102e357600080fd5b506101ba610685565b3480156102f857600080fd5b506101ba610307366004610942565b6106c4565b34801561031857600080fd5b50600080516020610cc0833981519152546001600160a01b031661023c565b34801561034357600080fd5b5061023c610352366004610802565b6000602081905290815260409020546001600160a01b031681565b7fa9767923fa81a63f5e22f0506ca531e5dc7649b02f99a75e3d53d88d5dba28308054606091600080516020610cc0833981519152916103ac90610a8f565b80601f01602080910402602001604051908101604052809291908181526020018280546103d890610a8f565b80156104255780601f106103fa57610100808354040283529160200191610425565b820191906000526020600020905b81548152906001019060200180831161040857829003601f168201915b505050505091505090565b600080516020610cc083398151915280546001600160a01b031633146104855760405162461bcd60e51b815260206004820152600a6024820152694f574e4552204f4e4c5960b01b6044820152606401610108565b8382146104c55760405162461bcd60e51b815260206004820152600e60248201526d0929cac8298928840988a9c8ea8960931b6044820152606401610108565b60005b8481101561056b578383828181106104e2576104e2610ac9565b90506020020160208101906104f79190610977565b60008088888581811061050c5761050c610ac9565b90506020020160208101906105219190610802565b6001600160e01b0319168152602081019190915260400160002080546001600160a01b0319166001600160a01b03929092169190911790558061056381610adf565b9150506104c8565b505050505050565b600080516020610cc083398151915280546001600160a01b0316156105ce5760405162461bcd60e51b8152602060048201526011602482015270494e4954494154454420414c524541445960781b6044820152606401610108565b80546001600160a01b0319166001600160a01b038a16178155600181016105f6888a83610b67565b5060028101610606868883610b67565b5060038101610616848683610b67565b506004810180546001600160a01b0319166001600160a01b0393909316929092179091556301ffc9a760e01b600090815260059091016020526040808220805460ff199081166001908117909255635b5e139f60e01b8452919092208054909116909117905550505050505050565b7fa9767923fa81a63f5e22f0506ca531e5dc7649b02f99a75e3d53d88d5dba28318054606091600080516020610cc0833981519152916103ac90610a8f565b6060600080516020610cc08339815191527fa9767923fa81a63f5e22f0506ca531e5dc7649b02f99a75e3d53d88d5dba28326106ff84610727565b604051602001610710929190610c28565b604051602081830303815290604052915050919050565b60608160000361074e5750506040805180820190915260018152600360fc1b602082015290565b8160005b811561076657600101600a82049150610752565b60008167ffffffffffffffff81111561078157610781610b06565b6040519080825280601f01601f1916602001820160405280156107ab576020820181803683370190505b5090505b84156107fa5760001990910190600a850660300160f81b8183815181106107d8576107d8610ac9565b60200101906001600160f81b031916908160001a905350600a850494506107af565b949350505050565b60006020828403121561081457600080fd5b81356001600160e01b03198116811461082c57600080fd5b9392505050565b60005b8381101561084e578181015183820152602001610836565b50506000910152565b6020815260008251806020840152610876816040850160208701610833565b601f01601f19169190910160400192915050565b60008083601f84011261089c57600080fd5b50813567ffffffffffffffff8111156108b457600080fd5b6020830191508360208260051b85010111156108cf57600080fd5b9250929050565b600080600080604085870312156108ec57600080fd5b843567ffffffffffffffff8082111561090457600080fd5b6109108883890161088a565b9096509450602087013591508082111561092957600080fd5b506109368782880161088a565b95989497509550505050565b60006020828403121561095457600080fd5b5035919050565b80356001600160a01b038116811461097257600080fd5b919050565b60006020828403121561098957600080fd5b61082c8261095b565b60008083601f8401126109a457600080fd5b50813567ffffffffffffffff8111156109bc57600080fd5b6020830191508360208285010111156108cf57600080fd5b60008060008060008060008060a0898b0312156109f057600080fd5b6109f98961095b565b9750602089013567ffffffffffffffff80821115610a1657600080fd5b610a228c838d01610992565b909950975060408b0135915080821115610a3b57600080fd5b610a478c838d01610992565b909750955060608b0135915080821115610a6057600080fd5b50610a6d8b828c01610992565b9094509250610a80905060808a0161095b565b90509295985092959890939650565b600181811c90821680610aa357607f821691505b602082108103610ac357634e487b7160e01b600052602260045260246000fd5b50919050565b634e487b7160e01b600052603260045260246000fd5b600060018201610aff57634e487b7160e01b600052601160045260246000fd5b5060010190565b634e487b7160e01b600052604160045260246000fd5b601f821115610b6257600081815260208120601f850160051c81016020861015610b435750805b601f850160051c820191505b8181101561056b57828155600101610b4f565b505050565b67ffffffffffffffff831115610b7f57610b7f610b06565b610b9383610b8d8354610a8f565b83610b1c565b6000601f841160018114610bc75760008515610baf5750838201355b600019600387901b1c1916600186901b178355610c21565b600083815260209020601f19861690835b82811015610bf85786850135825560209485019460019092019101610bd8565b5086821015610c155760001960f88860031b161c19848701351681555b505060018560011b0183555b5050505050565b6000808454610c3681610a8f565b60018281168015610c4e5760018114610c6357610c92565b60ff1984168752821515830287019450610c92565b8860005260208060002060005b85811015610c895781548a820152908401908201610c70565b50505082870194505b505050508351610ca6818360208801610833565b64173539b7b760d91b910190815260050194935050505056fea9767923fa81a63f5e22f0506ca531e5dc7649b02f99a75e3d53d88d5dba282fa2646970667358221220ac3f9dc23e39ffc09bd904ce5f0e1671ee889503e3be96c43cb2f4ee61824a5e64736f6c63430008100033",
    "linkReferences": {}
  },
  "methodIdentifiers": {
    "balanceOf(address)": "70a08231",
    "contractOwner()": "ce606ee0",
    "implementations(bytes4)": "e91db8e5",
    "init(address,string,string,string,address)": "7a049541",
    "name()": "06fdde03",
    "ownerOf(uint256)": "6352211e",
    "setImplementation(bytes4[],address[])": "16e4499f",
    "supportsInterface(bytes4)": "01ffc9a7",
    "symbol()": "95d89b41",
    "tokenURI(uint256)": "c87b56dd"
  },
  "id": 0
}