{
  "abi": [
    {
      "stateMutability": "payable",
      "type": "fallback"
    },
    {
      "inputs": [],
      "name": "contractOwner",
      "outputs": [
        {
          "internalType": "address",
          "name": "",
          "type": "address"
        }
      ],
      "stateMutability": "view",
      "type": "function"
    },
    {
      "inputs": [
        {
          "internalType": "bytes4",
          "name": "",
          "type": "bytes4"
        }
      ],
      "name": "implementations",
      "outputs": [
        {
          "internalType": "address",
          "name": "",
          "type": "address"
        }
      ],
      "stateMutability": "view",
      "type": "function"
    },
    {
      "inputs": [
        {
          "internalType": "address",
          "name": "_contractOwner",
          "type": "address"
        },
        {
          "internalType": "string",
          "name": "_name",
          "type": "string"
        },
        {
          "internalType": "string",
          "name": "_symbol",
          "type": "string"
        },
        {
          "internalType": "string",
          "name": "_baseURI",
          "type": "string"
        },
        {
          "internalType": "address",
          "name": "_validator",
          "type": "address"
        }
      ],
      "name": "init",
      "outputs": [],
      "stateMutability": "nonpayable",
      "type": "function"
    },
    {
      "inputs": [],
      "name": "name",
      "outputs": [
        {
          "internalType": "string",
          "name": "",
          "type": "string"
        }
      ],
      "stateMutability": "view",
      "type": "function"
    },
    {
      "inputs": [
        {
          "internalType": "uint256",
          "name": "_tokenId",
          "type": "uint256"
        }
      ],
      "name": "ownerOf",
      "outputs": [
        {
          "internalType": "address",
          "name": "",
          "type": "address"
        }
      ],
      "stateMutability": "view",
      "type": "function"
    },
    {
      "inputs": [
        {
          "internalType": "bytes4[]",
          "name": "_sigs",
          "type": "bytes4[]"
        },
        {
          "internalType": "address[]",
          "name": "_impAddress",
          "type": "address[]"
        }
      ],
      "name": "setImplementation",
      "outputs": [],
      "stateMutability": "nonpayable",
      "type": "function"
    },
    {
      "inputs": [
        {
          "internalType": "bytes4",
          "name": "_interfaceID",
          "type": "bytes4"
        }
      ],
      "name": "supportsInterface",
      "outputs": [
        {
          "internalType": "bool",
          "name": "",
          "type": "bool"
        }
      ],
      "stateMutability": "view",
      "type": "function"
    },
    {
      "inputs": [],
      "name": "symbol",
      "outputs": [
        {
          "internalType": "string",
          "name": "",
          "type": "string"
        }
      ],
      "stateMutability": "view",
      "type": "function"
    },
    {
      "inputs": [
        {
          "internalType": "uint256",
          "name": "_tokenId",
          "type": "uint256"
        }
      ],
      "name": "tokenURI",
      "outputs": [
        {
          "internalType": "string",
          "name": "",
          "type": "string"
        }
      ],
      "stateMutability": "view",
      "type": "function"
    },
    {
      "stateMutability": "payable",
      "type": "receive"
    }
  ],
  "bytecode": {
    "object": "0x608060405234801561001057600080fd5b50610ca7806100206000396000f3fe60806040526004361061008a5760003560e01c80637a049541116100595780637a0495411461024957806395d89b4114610269578063c87b56dd1461027e578063ce606ee01461029e578063e91db8e5146102c957610091565b806301ffc9a71461012c57806306fdde031461019a57806316e4499f146101bc5780636352211e146101dc57610091565b3661009157005b600080356001600160e01b0319168152602081905260409020546001600160a01b0316806101065760405162461bcd60e51b815260206004820152601760248201527f46756e6374696f6e20646f6573206e6f7420657869737400000000000000000060448201526064015b60405180910390fd5b3660008037600080366000845af43d6000803e808015610125573d6000f35b3d6000fd5b005b34801561013857600080fd5b50610185610147366004610794565b6001600160e01b03191660009081527fa9767923fa81a63f5e22f0506ca531e5dc7649b02f99a75e3d53d88d5dba2834602052604090205460ff1690565b60405190151581526020015b60405180910390f35b3480156101a657600080fd5b506101af6102ff565b60405161019191906107e9565b3480156101c857600080fd5b5061012a6101d7366004610868565b6103c2565b3480156101e857600080fd5b506102316101f73660046108d4565b60009081527fa9767923fa81a63f5e22f0506ca531e5dc7649b02f99a75e3d53d88d5dba283660205260409020546001600160a01b031690565b6040516001600160a01b039091168152602001610191565b34801561025557600080fd5b5061012a61026436600461094b565b610505565b34801561027557600080fd5b506101af610617565b34801561028a57600080fd5b506101af6102993660046108d4565b610656565b3480156102aa57600080fd5b50600080516020610c52833981519152546001600160a01b0316610231565b3480156102d557600080fd5b506102316102e4366004610794565b6000602081905290815260409020546001600160a01b031681565b7fa9767923fa81a63f5e22f0506ca531e5dc7649b02f99a75e3d53d88d5dba28308054606091600080516020610c528339815191529161033e90610a06565b80601f016020809104026020016040519081016040528092919081815260200182805461036a90610a06565b80156103b75780601f1061038c576101008083540402835291602001916103b7565b820191906000526020600020905b81548152906001019060200180831161039a57829003601f168201915b505050505091505090565b600080516020610c5283398151915280546001600160a01b031633146104175760405162461bcd60e51b815260206004820152600a6024820152694f574e4552204f4e4c5960b01b60448201526064016100fd565b8382146104575760405162461bcd60e51b815260206004820152600e60248201526d0929cac8298928840988a9c8ea8960931b60448201526064016100fd565b60005b848110156104fd5783838281811061047457610474610a40565b90506020020160208101906104899190610a56565b60008088888581811061049e5761049e610a40565b90506020020160208101906104b39190610794565b6001600160e01b0319168152602081019190915260400160002080546001600160a01b0319166001600160a01b0392909216919091179055806104f581610a71565b91505061045a565b505050505050565b600080516020610c5283398151915280546001600160a01b0316156105605760405162461bcd60e51b8152602060048201526011602482015270494e4954494154454420414c524541445960781b60448201526064016100fd565b80546001600160a01b0319166001600160a01b038a1617815560018101610588888a83610af9565b5060028101610598868883610af9565b50600381016105a8848683610af9565b506004810180546001600160a01b0319166001600160a01b0393909316929092179091556301ffc9a760e01b600090815260059091016020526040808220805460ff199081166001908117909255635b5e139f60e01b8452919092208054909116909117905550505050505050565b7fa9767923fa81a63f5e22f0506ca531e5dc7649b02f99a75e3d53d88d5dba28318054606091600080516020610c528339815191529161033e90610a06565b6060600080516020610c528339815191527fa9767923fa81a63f5e22f0506ca531e5dc7649b02f99a75e3d53d88d5dba2832610691846106b9565b6040516020016106a2929190610bba565b604051602081830303815290604052915050919050565b6060816000036106e05750506040805180820190915260018152600360fc1b602082015290565b8160005b81156106f857600101600a820491506106e4565b60008167ffffffffffffffff81111561071357610713610a98565b6040519080825280601f01601f19166020018201604052801561073d576020820181803683370190505b5090505b841561078c5760001990910190600a850660300160f81b81838151811061076a5761076a610a40565b60200101906001600160f81b031916908160001a905350600a85049450610741565b949350505050565b6000602082840312156107a657600080fd5b81356001600160e01b0319811681146107be57600080fd5b9392505050565b60005b838110156107e05781810151838201526020016107c8565b50506000910152565b60208152600082518060208401526108088160408501602087016107c5565b601f01601f19169190910160400192915050565b60008083601f84011261082e57600080fd5b50813567ffffffffffffffff81111561084657600080fd5b6020830191508360208260051b850101111561086157600080fd5b9250929050565b6000806000806040858703121561087e57600080fd5b843567ffffffffffffffff8082111561089657600080fd5b6108a28883890161081c565b909650945060208701359150808211156108bb57600080fd5b506108c88782880161081c565b95989497509550505050565b6000602082840312156108e657600080fd5b5035919050565b80356001600160a01b038116811461090457600080fd5b919050565b60008083601f84011261091b57600080fd5b50813567ffffffffffffffff81111561093357600080fd5b60208301915083602082850101111561086157600080fd5b60008060008060008060008060a0898b03121561096757600080fd5b610970896108ed565b9750602089013567ffffffffffffffff8082111561098d57600080fd5b6109998c838d01610909565b909950975060408b01359150808211156109b257600080fd5b6109be8c838d01610909565b909750955060608b01359150808211156109d757600080fd5b506109e48b828c01610909565b90945092506109f7905060808a016108ed565b90509295985092959890939650565b600181811c90821680610a1a57607f821691505b602082108103610a3a57634e487b7160e01b600052602260045260246000fd5b50919050565b634e487b7160e01b600052603260045260246000fd5b600060208284031215610a6857600080fd5b6107be826108ed565b600060018201610a9157634e487b7160e01b600052601160045260246000fd5b5060010190565b634e487b7160e01b600052604160045260246000fd5b601f821115610af457600081815260208120601f850160051c81016020861015610ad55750805b601f850160051c820191505b818110156104fd57828155600101610ae1565b505050565b67ffffffffffffffff831115610b1157610b11610a98565b610b2583610b1f8354610a06565b83610aae565b6000601f841160018114610b595760008515610b415750838201355b600019600387901b1c1916600186901b178355610bb3565b600083815260209020601f19861690835b82811015610b8a5786850135825560209485019460019092019101610b6a565b5086821015610ba75760001960f88860031b161c19848701351681555b505060018560011b0183555b5050505050565b6000808454610bc881610a06565b60018281168015610be05760018114610bf557610c24565b60ff1984168752821515830287019450610c24565b8860005260208060002060005b85811015610c1b5781548a820152908401908201610c02565b50505082870194505b505050508351610c388183602088016107c5565b64173539b7b760d91b910190815260050194935050505056fea9767923fa81a63f5e22f0506ca531e5dc7649b02f99a75e3d53d88d5dba282fa2646970667358221220bb8aacc8c0031147d5afbb8e81857afec0b8aaba77268710c0d42066a615fa8564736f6c63430008100033",
    "linkReferences": {}
  },
  "methodIdentifiers": {
    "contractOwner()": "ce606ee0",
    "implementations(bytes4)": "e91db8e5",
    "init(address,string,string,string,address)": "7a049541",
    "name()": "06fdde03",
    "ownerOf(uint256)": "6352211e",
    "setImplementation(bytes4[],address[])": "16e4499f",
    "supportsInterface(bytes4)": "01ffc9a7",
    "symbol()": "95d89b41",
    "tokenURI(uint256)": "c87b56dd"
  },
  "id": 0
}